{
  "_format": "hh-sol-artifact-1",
  "contractName": "Paypal",
  "sourceName": "contracts/Paypal.sol",
  "abi": [
    {
      "inputs": [],
      "stateMutability": "nonpayable",
      "type": "constructor"
    },
    {
      "inputs": [
        {
          "internalType": "string",
          "name": "_name",
          "type": "string"
        }
      ],
      "name": "addName",
      "outputs": [],
      "stateMutability": "nonpayable",
      "type": "function"
    },
    {
      "inputs": [
        {
          "internalType": "address",
          "name": "user",
          "type": "address"
        },
        {
          "internalType": "uint256",
          "name": "_amount",
          "type": "uint256"
        },
        {
          "internalType": "string",
          "name": "_message",
          "type": "string"
        }
      ],
      "name": "createRequest",
      "outputs": [],
      "stateMutability": "nonpayable",
      "type": "function"
    },
    {
      "inputs": [
        {
          "internalType": "address",
          "name": "_user",
          "type": "address"
        }
      ],
      "name": "getMyHistory",
      "outputs": [
        {
          "components": [
            {
              "internalType": "string",
              "name": "action",
              "type": "string"
            },
            {
              "internalType": "uint256",
              "name": "amount",
              "type": "uint256"
            },
            {
              "internalType": "string",
              "name": "message",
              "type": "string"
            },
            {
              "internalType": "address",
              "name": "otherPartyAddress",
              "type": "address"
            },
            {
              "internalType": "string",
              "name": "otherPartyName",
              "type": "string"
            }
          ],
          "internalType": "struct Paypal.sendReceive[]",
          "name": "",
          "type": "tuple[]"
        }
      ],
      "stateMutability": "view",
      "type": "function"
    },
    {
      "inputs": [
        {
          "internalType": "address",
          "name": "_user",
          "type": "address"
        }
      ],
      "name": "getMyName",
      "outputs": [
        {
          "components": [
            {
              "internalType": "string",
              "name": "name",
              "type": "string"
            },
            {
              "internalType": "bool",
              "name": "hasName",
              "type": "bool"
            }
          ],
          "internalType": "struct Paypal.userName",
          "name": "",
          "type": "tuple"
        }
      ],
      "stateMutability": "view",
      "type": "function"
    },
    {
      "inputs": [
        {
          "internalType": "address",
          "name": "_user",
          "type": "address"
        }
      ],
      "name": "getMyRequests",
      "outputs": [
        {
          "internalType": "address[]",
          "name": "",
          "type": "address[]"
        },
        {
          "internalType": "uint256[]",
          "name": "",
          "type": "uint256[]"
        },
        {
          "internalType": "string[]",
          "name": "",
          "type": "string[]"
        },
        {
          "internalType": "string[]",
          "name": "",
          "type": "string[]"
        }
      ],
      "stateMutability": "view",
      "type": "function"
    },
    {
      "inputs": [],
      "name": "owner",
      "outputs": [
        {
          "internalType": "address",
          "name": "",
          "type": "address"
        }
      ],
      "stateMutability": "view",
      "type": "function"
    },
    {
      "inputs": [
        {
          "internalType": "uint256",
          "name": "_request",
          "type": "uint256"
        }
      ],
      "name": "payRequest",
      "outputs": [],
      "stateMutability": "payable",
      "type": "function"
    }
  ],
  "bytecode": "0x608060405234801561001057600080fd5b50336000806101000a81548173ffffffffffffffffffffffffffffffffffffffff021916908373ffffffffffffffffffffffffffffffffffffffff160217905550612614806100606000396000f3fe6080604052600436106100705760003560e01c8063370068aa1161004e578063370068aa1461011b57806363d4dd3b146101585780638da5cb5b14610174578063ba9a7a9e1461019f57610070565b806311456b4714610075578063169afbaa1461009e578063347b1b83146100db575b600080fd5b34801561008157600080fd5b5061009c60048036038101906100979190611946565b6101c8565b005b3480156100aa57600080fd5b506100c560048036038101906100c091906119ed565b61023e565b6040516100d29190611af1565b60405180910390f35b3480156100e757600080fd5b5061010260048036038101906100fd91906119ed565b610344565b6040516101129493929190611d5b565b60405180910390f35b34801561012757600080fd5b50610142600480360381019061013d91906119ed565b610852565b60405161014f9190611f02565b60405180910390f35b610172600480360381019061016d9190611f50565b610b06565b005b34801561018057600080fd5b50610189610eea565b6040516101969190611f8c565b60405180910390f35b3480156101ab57600080fd5b506101c660048036038101906101c19190611fa7565b610f0e565b005b6000600160003373ffffffffffffffffffffffffffffffffffffffff1673ffffffffffffffffffffffffffffffffffffffff16815260200190815260200160002090508181600001908161021c9190612222565b5060018160010160006101000a81548160ff0219169083151502179055505050565b6102466116f0565b600160008373ffffffffffffffffffffffffffffffffffffffff1673ffffffffffffffffffffffffffffffffffffffff1681526020019081526020016000206040518060400160405290816000820180546102a090612045565b80601f01602080910402602001604051908101604052809291908181526020018280546102cc90612045565b80156103195780601f106102ee57610100808354040283529160200191610319565b820191906000526020600020905b8154815290600101906020018083116102fc57829003601f168201915b505050505081526020016001820160009054906101000a900460ff1615151515815250509050919050565b6060806060806000600260008773ffffffffffffffffffffffffffffffffffffffff1673ffffffffffffffffffffffffffffffffffffffff1681526020019081526020016000208054905067ffffffffffffffff8111156103a8576103a761181b565b5b6040519080825280602002602001820160405280156103d65781602001602082028036833780820191505090505b5090506000600260008873ffffffffffffffffffffffffffffffffffffffff1673ffffffffffffffffffffffffffffffffffffffff1681526020019081526020016000208054905067ffffffffffffffff8111156104375761043661181b565b5b6040519080825280602002602001820160405280156104655781602001602082028036833780820191505090505b5090506000600260008973ffffffffffffffffffffffffffffffffffffffff1673ffffffffffffffffffffffffffffffffffffffff1681526020019081526020016000208054905067ffffffffffffffff8111156104c6576104c561181b565b5b6040519080825280602002602001820160405280156104f957816020015b60608152602001906001900390816104e45790505b5090506000600260008a73ffffffffffffffffffffffffffffffffffffffff1673ffffffffffffffffffffffffffffffffffffffff1681526020019081526020016000208054905067ffffffffffffffff81111561055a5761055961181b565b5b60405190808252806020026020018201604052801561058d57816020015b60608152602001906001900390816105785790505b50905060005b600260008b73ffffffffffffffffffffffffffffffffffffffff1673ffffffffffffffffffffffffffffffffffffffff1681526020019081526020016000208054905081101561083a576000600260008c73ffffffffffffffffffffffffffffffffffffffff1673ffffffffffffffffffffffffffffffffffffffff16815260200190815260200160002082815481106106305761062f6122f4565b5b906000526020600020906004020190508060000160009054906101000a900473ffffffffffffffffffffffffffffffffffffffff16868381518110610678576106776122f4565b5b602002602001019073ffffffffffffffffffffffffffffffffffffffff16908173ffffffffffffffffffffffffffffffffffffffff168152505080600101548583815181106106ca576106c96122f4565b5b6020026020010181815250508060020180546106e590612045565b80601f016020809104026020016040519081016040528092919081815260200182805461071190612045565b801561075e5780601f106107335761010080835404028352916020019161075e565b820191906000526020600020905b81548152906001019060200180831161074157829003601f168201915b5050505050848381518110610776576107756122f4565b5b602002602001018190525080600301805461079090612045565b80601f01602080910402602001604051908101604052809291908181526020018280546107bc90612045565b80156108095780601f106107de57610100808354040283529160200191610809565b820191906000526020600020905b8154815290600101906020018083116107ec57829003601f168201915b5050505050838381518110610821576108206122f4565b5b6020026020010181905250508080600101915050610593565b50838383839750975097509750505050509193509193565b6060600360008373ffffffffffffffffffffffffffffffffffffffff1673ffffffffffffffffffffffffffffffffffffffff168152602001908152602001600020805480602002602001604051908101604052809291908181526020016000905b82821015610afb57838290600052602060002090600502016040518060a00160405290816000820180546108e690612045565b80601f016020809104026020016040519081016040528092919081815260200182805461091290612045565b801561095f5780601f106109345761010080835404028352916020019161095f565b820191906000526020600020905b81548152906001019060200180831161094257829003601f168201915b505050505081526020016001820154815260200160028201805461098290612045565b80601f01602080910402602001604051908101604052809291908181526020018280546109ae90612045565b80156109fb5780601f106109d0576101008083540402835291602001916109fb565b820191906000526020600020905b8154815290600101906020018083116109de57829003601f168201915b505050505081526020016003820160009054906101000a900473ffffffffffffffffffffffffffffffffffffffff1673ffffffffffffffffffffffffffffffffffffffff1673ffffffffffffffffffffffffffffffffffffffff168152602001600482018054610a6a90612045565b80601f0160208091040260200160405190810160405280929190818152602001828054610a9690612045565b8015610ae35780601f10610ab857610100808354040283529160200191610ae3565b820191906000526020600020905b815481529060010190602001808311610ac657829003601f168201915b505050505081525050815260200190600101906108b3565b505050509050919050565b600260003373ffffffffffffffffffffffffffffffffffffffff1673ffffffffffffffffffffffffffffffffffffffff168152602001908152602001600020805490508110610b8a576040517f08c379a0000000000000000000000000000000000000000000000000000000008152600401610b8190612380565b60405180910390fd5b6000600260003373ffffffffffffffffffffffffffffffffffffffff1673ffffffffffffffffffffffffffffffffffffffff16815260200190815260200160002090506000818381548110610be257610be16122f4565b5b906000526020600020906004020190506000670de0b6b3a76400008260010154610c0c91906123cf565b9050803414610c50576040517f08c379a0000000000000000000000000000000000000000000000000000000008152600401610c479061245d565b60405180910390fd5b8160000160009054906101000a900473ffffffffffffffffffffffffffffffffffffffff1673ffffffffffffffffffffffffffffffffffffffff166108fc349081150290604051600060405180830381858888f19350505050158015610cba573d6000803e3d6000fd5b50610d7b338360000160009054906101000a900473ffffffffffffffffffffffffffffffffffffffff168460010154856002018054610cf890612045565b80601f0160208091040260200160405190810160405280929190818152602001828054610d2490612045565b8015610d715780601f10610d4657610100808354040283529160200191610d71565b820191906000526020600020905b815481529060010190602001808311610d5457829003601f168201915b5050505050611178565b8260018480549050610d8d919061247d565b81548110610d9e57610d9d6122f4565b5b9060005260206000209060040201838581548110610dbf57610dbe6122f4565b5b90600052602060002090600402016000820160009054906101000a900473ffffffffffffffffffffffffffffffffffffffff168160000160006101000a81548173ffffffffffffffffffffffffffffffffffffffff021916908373ffffffffffffffffffffffffffffffffffffffff1602179055506001820154816001015560028201816002019081610e5291906124c7565b5060038201816003019081610e6791906124c7565b5090505082805480610e7c57610e7b6125af565b5b6001900381819060005260206000209060040201600080820160006101000a81549073ffffffffffffffffffffffffffffffffffffffff02191690556001820160009055600282016000610ed0919061170c565b600382016000610ee0919061170c565b5050905550505050565b60008054906101000a900473ffffffffffffffffffffffffffffffffffffffff1681565b610f1661174c565b33816000019073ffffffffffffffffffffffffffffffffffffffff16908173ffffffffffffffffffffffffffffffffffffffff168152505082816020018181525050818160400181905250600160003373ffffffffffffffffffffffffffffffffffffffff1673ffffffffffffffffffffffffffffffffffffffff16815260200190815260200160002060010160009054906101000a900460ff161561108a57600160003373ffffffffffffffffffffffffffffffffffffffff1673ffffffffffffffffffffffffffffffffffffffff168152602001908152602001600020600001805461100390612045565b80601f016020809104026020016040519081016040528092919081815260200182805461102f90612045565b801561107c5780601f106110515761010080835404028352916020019161107c565b820191906000526020600020905b81548152906001019060200180831161105f57829003601f168201915b505050505081606001819052505b600260008573ffffffffffffffffffffffffffffffffffffffff1673ffffffffffffffffffffffffffffffffffffffff16815260200190815260200160002081908060018154018082558091505060019003906000526020600020906004020160009091909190915060008201518160000160006101000a81548173ffffffffffffffffffffffffffffffffffffffff021916908373ffffffffffffffffffffffffffffffffffffffff1602179055506020820151816001015560408201518160020190816111599190612222565b50606082015181600301908161116f9190612222565b50505050505050565b61118061178a565b6040518060400160405280600481526020017f53656e640000000000000000000000000000000000000000000000000000000081525081600001819052508281602001818152505081816040018190525083816060019073ffffffffffffffffffffffffffffffffffffffff16908173ffffffffffffffffffffffffffffffffffffffff1681525050600160008573ffffffffffffffffffffffffffffffffffffffff1673ffffffffffffffffffffffffffffffffffffffff16815260200190815260200160002060010160009054906101000a900460ff161561133257600160008573ffffffffffffffffffffffffffffffffffffffff1673ffffffffffffffffffffffffffffffffffffffff16815260200190815260200160002060000180546112ab90612045565b80601f01602080910402602001604051908101604052809291908181526020018280546112d790612045565b80156113245780601f106112f957610100808354040283529160200191611324565b820191906000526020600020905b81548152906001019060200180831161130757829003601f168201915b505050505081608001819052505b600360008673ffffffffffffffffffffffffffffffffffffffff1673ffffffffffffffffffffffffffffffffffffffff16815260200190815260200160002081908060018154018082558091505060019003906000526020600020906005020160009091909190915060008201518160000190816113b09190612222565b506020820151816001015560408201518160020190816113d09190612222565b5060608201518160030160006101000a81548173ffffffffffffffffffffffffffffffffffffffff021916908373ffffffffffffffffffffffffffffffffffffffff160217905550608082015181600401908161142d9190612222565b50505061143861178a565b6040518060400160405280600781526020017f526563656976650000000000000000000000000000000000000000000000000081525081600001819052508381602001818152505082816040018190525085816060019073ffffffffffffffffffffffffffffffffffffffff16908173ffffffffffffffffffffffffffffffffffffffff1681525050600160008773ffffffffffffffffffffffffffffffffffffffff1673ffffffffffffffffffffffffffffffffffffffff16815260200190815260200160002060010160009054906101000a900460ff16156115ea57600160008773ffffffffffffffffffffffffffffffffffffffff1673ffffffffffffffffffffffffffffffffffffffff168152602001908152602001600020600001805461156390612045565b80601f016020809104026020016040519081016040528092919081815260200182805461158f90612045565b80156115dc5780601f106115b1576101008083540402835291602001916115dc565b820191906000526020600020905b8154815290600101906020018083116115bf57829003601f168201915b505050505081608001819052505b600360008673ffffffffffffffffffffffffffffffffffffffff1673ffffffffffffffffffffffffffffffffffffffff16815260200190815260200160002081908060018154018082558091505060019003906000526020600020906005020160009091909190915060008201518160000190816116689190612222565b506020820151816001015560408201518160020190816116889190612222565b5060608201518160030160006101000a81548173ffffffffffffffffffffffffffffffffffffffff021916908373ffffffffffffffffffffffffffffffffffffffff16021790555060808201518160040190816116e59190612222565b505050505050505050565b6040518060400160405280606081526020016000151581525090565b50805461171890612045565b6000825580601f1061172a5750611749565b601f01602090049060005260206000209081019061174891906117cf565b5b50565b6040518060800160405280600073ffffffffffffffffffffffffffffffffffffffff1681526020016000815260200160608152602001606081525090565b6040518060a00160405280606081526020016000815260200160608152602001600073ffffffffffffffffffffffffffffffffffffffff168152602001606081525090565b5b808211156117e85760008160009055506001016117d0565b5090565b6000604051905090565b600080fd5b600080fd5b600080fd5b600080fd5b6000601f19601f8301169050919050565b7f4e487b7100000000000000000000000000000000000000000000000000000000600052604160045260246000fd5b6118538261180a565b810181811067ffffffffffffffff821117156118725761187161181b565b5b80604052505050565b60006118856117ec565b9050611891828261184a565b919050565b600067ffffffffffffffff8211156118b1576118b061181b565b5b6118ba8261180a565b9050602081019050919050565b82818337600083830152505050565b60006118e96118e484611896565b61187b565b90508281526020810184848401111561190557611904611805565b5b6119108482856118c7565b509392505050565b600082601f83011261192d5761192c611800565b5b813561193d8482602086016118d6565b91505092915050565b60006020828403121561195c5761195b6117f6565b5b600082013567ffffffffffffffff81111561197a576119796117fb565b5b61198684828501611918565b91505092915050565b600073ffffffffffffffffffffffffffffffffffffffff82169050919050565b60006119ba8261198f565b9050919050565b6119ca816119af565b81146119d557600080fd5b50565b6000813590506119e7816119c1565b92915050565b600060208284031215611a0357611a026117f6565b5b6000611a11848285016119d8565b91505092915050565b600081519050919050565b600082825260208201905092915050565b60005b83811015611a54578082015181840152602081019050611a39565b60008484015250505050565b6000611a6b82611a1a565b611a758185611a25565b9350611a85818560208601611a36565b611a8e8161180a565b840191505092915050565b60008115159050919050565b611aae81611a99565b82525050565b60006040830160008301518482036000860152611ad18282611a60565b9150506020830151611ae66020860182611aa5565b508091505092915050565b60006020820190508181036000830152611b0b8184611ab4565b905092915050565b600081519050919050565b600082825260208201905092915050565b6000819050602082019050919050565b611b48816119af565b82525050565b6000611b5a8383611b3f565b60208301905092915050565b6000602082019050919050565b6000611b7e82611b13565b611b888185611b1e565b9350611b9383611b2f565b8060005b83811015611bc4578151611bab8882611b4e565b9750611bb683611b66565b925050600181019050611b97565b5085935050505092915050565b600081519050919050565b600082825260208201905092915050565b6000819050602082019050919050565b6000819050919050565b611c1081611bfd565b82525050565b6000611c228383611c07565b60208301905092915050565b6000602082019050919050565b6000611c4682611bd1565b611c508185611bdc565b9350611c5b83611bed565b8060005b83811015611c8c578151611c738882611c16565b9750611c7e83611c2e565b925050600181019050611c5f565b5085935050505092915050565b600081519050919050565b600082825260208201905092915050565b6000819050602082019050919050565b6000611cd18383611a60565b905092915050565b6000602082019050919050565b6000611cf182611c99565b611cfb8185611ca4565b935083602082028501611d0d85611cb5565b8060005b85811015611d495784840389528151611d2a8582611cc5565b9450611d3583611cd9565b925060208a01995050600181019050611d11565b50829750879550505050505092915050565b60006080820190508181036000830152611d758187611b73565b90508181036020830152611d898186611c3b565b90508181036040830152611d9d8185611ce6565b90508181036060830152611db18184611ce6565b905095945050505050565b600081519050919050565b600082825260208201905092915050565b6000819050602082019050919050565b600060a0830160008301518482036000860152611e058282611a60565b9150506020830151611e1a6020860182611c07565b5060408301518482036040860152611e328282611a60565b9150506060830151611e476060860182611b3f565b5060808301518482036080860152611e5f8282611a60565b9150508091505092915050565b6000611e788383611de8565b905092915050565b6000602082019050919050565b6000611e9882611dbc565b611ea28185611dc7565b935083602082028501611eb485611dd8565b8060005b85811015611ef05784840389528151611ed18582611e6c565b9450611edc83611e80565b925060208a01995050600181019050611eb8565b50829750879550505050505092915050565b60006020820190508181036000830152611f1c8184611e8d565b905092915050565b611f2d81611bfd565b8114611f3857600080fd5b50565b600081359050611f4a81611f24565b92915050565b600060208284031215611f6657611f656117f6565b5b6000611f7484828501611f3b565b91505092915050565b611f86816119af565b82525050565b6000602082019050611fa16000830184611f7d565b92915050565b600080600060608486031215611fc057611fbf6117f6565b5b6000611fce868287016119d8565b9350506020611fdf86828701611f3b565b925050604084013567ffffffffffffffff81111561200057611fff6117fb565b5b61200c86828701611918565b9150509250925092565b7f4e487b7100000000000000000000000000000000000000000000000000000000600052602260045260246000fd5b6000600282049050600182168061205d57607f821691505b6020821081036120705761206f612016565b5b50919050565b60008190508160005260206000209050919050565b60006020601f8301049050919050565b600082821b905092915050565b6000600883026120d87fffffffffffffffffffffffffffffffffffffffffffffffffffffffffffffffff8261209b565b6120e2868361209b565b95508019841693508086168417925050509392505050565b6000819050919050565b600061211f61211a61211584611bfd565b6120fa565b611bfd565b9050919050565b6000819050919050565b61213983612104565b61214d61214582612126565b8484546120a8565b825550505050565b600090565b612162612155565b61216d818484612130565b505050565b5b818110156121915761218660008261215a565b600181019050612173565b5050565b601f8211156121d6576121a781612076565b6121b08461208b565b810160208510156121bf578190505b6121d36121cb8561208b565b830182612172565b50505b505050565b600082821c905092915050565b60006121f9600019846008026121db565b1980831691505092915050565b600061221283836121e8565b9150826002028217905092915050565b61222b82611a1a565b67ffffffffffffffff8111156122445761224361181b565b5b61224e8254612045565b612259828285612195565b600060209050601f83116001811461228c576000841561227a578287015190505b6122848582612206565b8655506122ec565b601f19841661229a86612076565b60005b828110156122c25784890151825560018201915060208501945060208101905061229d565b868310156122df57848901516122db601f8916826121e8565b8355505b6001600288020188555050505b505050505050565b7f4e487b7100000000000000000000000000000000000000000000000000000000600052603260045260246000fd5b600082825260208201905092915050565b7f4e6f205375636820526571756573740000000000000000000000000000000000600082015250565b600061236a600f83612323565b915061237582612334565b602082019050919050565b600060208201905081810360008301526123998161235d565b9050919050565b7f4e487b7100000000000000000000000000000000000000000000000000000000600052601160045260246000fd5b60006123da82611bfd565b91506123e583611bfd565b92508282026123f381611bfd565b9150828204841483151761240a576124096123a0565b5b5092915050565b7f50617920436f727265637420416d6f756e740000000000000000000000000000600082015250565b6000612447601283612323565b915061245282612411565b602082019050919050565b600060208201905081810360008301526124768161243a565b9050919050565b600061248882611bfd565b915061249383611bfd565b92508282039050818111156124ab576124aa6123a0565b5b92915050565b6000815490506124c081612045565b9050919050565b8181036124d55750506125ad565b6124de826124b1565b67ffffffffffffffff8111156124f7576124f661181b565b5b6125018254612045565b61250c828285612195565b6000601f83116001811461253b5760008415612529578287015490505b6125338582612206565b8655506125a6565b601f19841661254987612076565b965061255486612076565b60005b8281101561257c57848901548255600182019150600185019450602081019050612557565b868310156125995784890154612595601f8916826121e8565b8355505b6001600288020188555050505b5050505050505b565b7f4e487b7100000000000000000000000000000000000000000000000000000000600052603160045260246000fdfea2646970667358221220fe6e4d002d8a9352630b077d75c013b6363bef4fce0690769cec6c7ee3a511eb64736f6c63430008180033",
  "linkReferences": {},
  "deployedLinkReferences": {}
}